{
  "_format": "hh-sol-artifact-1",
  "contractName": "Todo",
  "sourceName": "contracts/Todo.sol",
  "abi": [
    {
      "anonymous": false,
      "inputs": [
        {
          "indexed": false,
          "internalType": "address",
          "name": "recipient",
          "type": "address"
        },
        {
          "indexed": false,
          "internalType": "uint256",
          "name": "taskId",
          "type": "uint256"
        }
      ],
      "name": "AddTask",
      "type": "event"
    },
    {
      "anonymous": false,
      "inputs": [
        {
          "indexed": false,
          "internalType": "uint256",
          "name": "taskId",
          "type": "uint256"
        },
        {
          "indexed": false,
          "internalType": "bool",
          "name": "isDeleted",
          "type": "bool"
        }
      ],
      "name": "DeleteTask",
      "type": "event"
    },
    {
      "inputs": [
        {
          "internalType": "string",
          "name": "taskText",
          "type": "string"
        },
        {
          "internalType": "bool",
          "name": "isDeleted",
          "type": "bool"
        }
      ],
      "name": "addTask",
      "outputs": [],
      "stateMutability": "nonpayable",
      "type": "function"
    },
    {
      "inputs": [
        {
          "internalType": "uint256",
          "name": "taskId",
          "type": "uint256"
        },
        {
          "internalType": "bool",
          "name": "isDeleted",
          "type": "bool"
        }
      ],
      "name": "deleteTask",
      "outputs": [],
      "stateMutability": "nonpayable",
      "type": "function"
    },
    {
      "inputs": [],
      "name": "getMyTasks",
      "outputs": [
        {
          "components": [
            {
              "internalType": "uint256",
              "name": "id",
              "type": "uint256"
            },
            {
              "internalType": "string",
              "name": "taskText",
              "type": "string"
            },
            {
              "internalType": "bool",
              "name": "isDeleted",
              "type": "bool"
            }
          ],
          "internalType": "struct Todo.Task[]",
          "name": "",
          "type": "tuple[]"
        }
      ],
      "stateMutability": "view",
      "type": "function"
    }
  ],
  "bytecode": "0x608060405234801561001057600080fd5b50610e5a806100206000396000f3fe608060405234801561001057600080fd5b50600436106100415760003560e01c806320df4581146100465780636e13f81814610062578063aaba290714610080575b600080fd5b610060600480360381019061005b919061074c565b61009c565b005b61006a6101bf565b6040516100779190610961565b60405180910390f35b61009a600480360381019061009591906109af565b6104b5565b005b60008080549050905060006040518060600160405280838152602001858152602001841515815250908060018154018082558091505060019003906000526020600020906003020160009091909190915060008201518160000155602082015181600101908161010c9190610bfb565b5060408201518160020160006101000a81548160ff0219169083151502179055505050336001600083815260200190815260200160002060006101000a81548173ffffffffffffffffffffffffffffffffffffffff021916908373ffffffffffffffffffffffffffffffffffffffff1602179055507f1f54e1ba1832d428fbd7e7792beaf62b1fc5a382c207ffd614209c1413e94fda33826040516101b2929190610d1d565b60405180910390a1505050565b60606000808054905067ffffffffffffffff8111156101e1576101e06105e9565b5b60405190808252806020026020018201604052801561021a57816020015b610207610597565b8152602001906001900390816101ff5790505b5090506000805b6000805490508110156103fb573373ffffffffffffffffffffffffffffffffffffffff166001600083815260200190815260200160002060009054906101000a900473ffffffffffffffffffffffffffffffffffffffff1673ffffffffffffffffffffffffffffffffffffffff161480156102d2575060001515600082815481106102af576102ae610d46565b5b906000526020600020906003020160020160009054906101000a900460ff161515145b156103e857600081815481106102eb576102ea610d46565b5b90600052602060002090600302016040518060600160405290816000820154815260200160018201805461031e90610a1e565b80601f016020809104026020016040519081016040528092919081815260200182805461034a90610a1e565b80156103975780601f1061036c57610100808354040283529160200191610397565b820191906000526020600020905b81548152906001019060200180831161037a57829003601f168201915b505050505081526020016002820160009054906101000a900460ff1615151515815250508383815181106103ce576103cd610d46565b5b602002602001018190525081806103e490610da4565b9250505b80806103f390610da4565b915050610221565b5060008167ffffffffffffffff811115610418576104176105e9565b5b60405190808252806020026020018201604052801561045157816020015b61043e610597565b8152602001906001900390816104365790505b50905060005b828110156104ab5783818151811061047257610471610d46565b5b602002602001015182828151811061048d5761048c610d46565b5b602002602001018190525080806104a390610da4565b915050610457565b5080935050505090565b3373ffffffffffffffffffffffffffffffffffffffff166001600084815260200190815260200160002060009054906101000a900473ffffffffffffffffffffffffffffffffffffffff1673ffffffffffffffffffffffffffffffffffffffff16036105935760016000838154811061053157610530610d46565b5b906000526020600020906003020160020160006101000a81548160ff0219169083151502179055507ff88a35c3d2016c409a46570b994a17b408dbc83c14a03f521512d50b85386d06828260405161058a929190610dfb565b60405180910390a15b5050565b604051806060016040528060008152602001606081526020016000151581525090565b6000604051905090565b600080fd5b600080fd5b600080fd5b600080fd5b6000601f19601f8301169050919050565b7f4e487b7100000000000000000000000000000000000000000000000000000000600052604160045260246000fd5b610621826105d8565b810181811067ffffffffffffffff821117156106405761063f6105e9565b5b80604052505050565b60006106536105ba565b905061065f8282610618565b919050565b600067ffffffffffffffff82111561067f5761067e6105e9565b5b610688826105d8565b9050602081019050919050565b82818337600083830152505050565b60006106b76106b284610664565b610649565b9050828152602081018484840111156106d3576106d26105d3565b5b6106de848285610695565b509392505050565b600082601f8301126106fb576106fa6105ce565b5b813561070b8482602086016106a4565b91505092915050565b60008115159050919050565b61072981610714565b811461073457600080fd5b50565b60008135905061074681610720565b92915050565b60008060408385031215610763576107626105c4565b5b600083013567ffffffffffffffff811115610781576107806105c9565b5b61078d858286016106e6565b925050602061079e85828601610737565b9150509250929050565b600081519050919050565b600082825260208201905092915050565b6000819050602082019050919050565b6000819050919050565b6107e7816107d4565b82525050565b600081519050919050565b600082825260208201905092915050565b60005b8381101561082757808201518184015260208101905061080c565b60008484015250505050565b600061083e826107ed565b61084881856107f8565b9350610858818560208601610809565b610861816105d8565b840191505092915050565b61087581610714565b82525050565b600060608301600083015161089360008601826107de565b50602083015184820360208601526108ab8282610833565b91505060408301516108c0604086018261086c565b508091505092915050565b60006108d7838361087b565b905092915050565b6000602082019050919050565b60006108f7826107a8565b61090181856107b3565b935083602082028501610913856107c4565b8060005b8581101561094f578484038952815161093085826108cb565b945061093b836108df565b925060208a01995050600181019050610917565b50829750879550505050505092915050565b6000602082019050818103600083015261097b81846108ec565b905092915050565b61098c816107d4565b811461099757600080fd5b50565b6000813590506109a981610983565b92915050565b600080604083850312156109c6576109c56105c4565b5b60006109d48582860161099a565b92505060206109e585828601610737565b9150509250929050565b7f4e487b7100000000000000000000000000000000000000000000000000000000600052602260045260246000fd5b60006002820490506001821680610a3657607f821691505b602082108103610a4957610a486109ef565b5b50919050565b60008190508160005260206000209050919050565b60006020601f8301049050919050565b600082821b905092915050565b600060088302610ab17fffffffffffffffffffffffffffffffffffffffffffffffffffffffffffffffff82610a74565b610abb8683610a74565b95508019841693508086168417925050509392505050565b6000819050919050565b6000610af8610af3610aee846107d4565b610ad3565b6107d4565b9050919050565b6000819050919050565b610b1283610add565b610b26610b1e82610aff565b848454610a81565b825550505050565b600090565b610b3b610b2e565b610b46818484610b09565b505050565b5b81811015610b6a57610b5f600082610b33565b600181019050610b4c565b5050565b601f821115610baf57610b8081610a4f565b610b8984610a64565b81016020851015610b98578190505b610bac610ba485610a64565b830182610b4b565b50505b505050565b600082821c905092915050565b6000610bd260001984600802610bb4565b1980831691505092915050565b6000610beb8383610bc1565b9150826002028217905092915050565b610c04826107ed565b67ffffffffffffffff811115610c1d57610c1c6105e9565b5b610c278254610a1e565b610c32828285610b6e565b600060209050601f831160018114610c655760008415610c53578287015190505b610c5d8582610bdf565b865550610cc5565b601f198416610c7386610a4f565b60005b82811015610c9b57848901518255600182019150602085019450602081019050610c76565b86831015610cb85784890151610cb4601f891682610bc1565b8355505b6001600288020188555050505b505050505050565b600073ffffffffffffffffffffffffffffffffffffffff82169050919050565b6000610cf882610ccd565b9050919050565b610d0881610ced565b82525050565b610d17816107d4565b82525050565b6000604082019050610d326000830185610cff565b610d3f6020830184610d0e565b9392505050565b7f4e487b7100000000000000000000000000000000000000000000000000000000600052603260045260246000fd5b7f4e487b7100000000000000000000000000000000000000000000000000000000600052601160045260246000fd5b6000610daf826107d4565b91507fffffffffffffffffffffffffffffffffffffffffffffffffffffffffffffffff8203610de157610de0610d75565b5b600182019050919050565b610df581610714565b82525050565b6000604082019050610e106000830185610d0e565b610e1d6020830184610dec565b939250505056fea26469706673582212206a5f25ea9f17b7f80d630c8ce5ec5825889c2d98a3a4ac75d7a798061d86046664736f6c63430008110033",
  "linkReferences": {},
  "deployedLinkReferences": {}
}